{
  "_format": "hh-sol-artifact-1",
  "contractName": "DripNFT",
  "sourceName": "contracts/DripNFT.sol",
  "abi": [
    {
      "inputs": [
        {
          "internalType": "address",
          "name": "svgCreatorAddress",
          "type": "address"
        }
      ],
      "stateMutability": "nonpayable",
      "type": "constructor"
    },
    {
      "anonymous": false,
      "inputs": [
        {
          "indexed": true,
          "internalType": "address",
          "name": "owner",
          "type": "address"
        },
        {
          "indexed": true,
          "internalType": "address",
          "name": "approved",
          "type": "address"
        },
        {
          "indexed": true,
          "internalType": "uint256",
          "name": "tokenId",
          "type": "uint256"
        }
      ],
      "name": "Approval",
      "type": "event"
    },
    {
      "anonymous": false,
      "inputs": [
        {
          "indexed": true,
          "internalType": "address",
          "name": "owner",
          "type": "address"
        },
        {
          "indexed": true,
          "internalType": "address",
          "name": "operator",
          "type": "address"
        },
        {
          "indexed": false,
          "internalType": "bool",
          "name": "approved",
          "type": "bool"
        }
      ],
      "name": "ApprovalForAll",
      "type": "event"
    },
    {
      "anonymous": false,
      "inputs": [
        {
          "indexed": true,
          "internalType": "address",
          "name": "previousOwner",
          "type": "address"
        },
        {
          "indexed": true,
          "internalType": "address",
          "name": "newOwner",
          "type": "address"
        }
      ],
      "name": "OwnershipTransferred",
      "type": "event"
    },
    {
      "anonymous": false,
      "inputs": [
        {
          "indexed": true,
          "internalType": "address",
          "name": "to",
          "type": "address"
        },
        {
          "indexed": true,
          "internalType": "uint256",
          "name": "tokenId",
          "type": "uint256"
        },
        {
          "indexed": false,
          "internalType": "string",
          "name": "tokenURI",
          "type": "string"
        }
      ],
      "name": "TokenMinted",
      "type": "event"
    },
    {
      "anonymous": false,
      "inputs": [
        {
          "indexed": true,
          "internalType": "address",
          "name": "from",
          "type": "address"
        },
        {
          "indexed": true,
          "internalType": "address",
          "name": "to",
          "type": "address"
        },
        {
          "indexed": true,
          "internalType": "uint256",
          "name": "tokenId",
          "type": "uint256"
        }
      ],
      "name": "Transfer",
      "type": "event"
    },
    {
      "inputs": [
        {
          "internalType": "address",
          "name": "to",
          "type": "address"
        },
        {
          "internalType": "uint256",
          "name": "tokenId",
          "type": "uint256"
        }
      ],
      "name": "approve",
      "outputs": [],
      "stateMutability": "nonpayable",
      "type": "function"
    },
    {
      "inputs": [
        {
          "internalType": "address",
          "name": "owner",
          "type": "address"
        }
      ],
      "name": "balanceOf",
      "outputs": [
        {
          "internalType": "uint256",
          "name": "",
          "type": "uint256"
        }
      ],
      "stateMutability": "view",
      "type": "function"
    },
    {
      "inputs": [],
      "name": "contractURI",
      "outputs": [
        {
          "internalType": "string",
          "name": "",
          "type": "string"
        }
      ],
      "stateMutability": "view",
      "type": "function"
    },
    {
      "inputs": [
        {
          "internalType": "uint256",
          "name": "tokenId",
          "type": "uint256"
        }
      ],
      "name": "getApproved",
      "outputs": [
        {
          "internalType": "address",
          "name": "",
          "type": "address"
        }
      ],
      "stateMutability": "view",
      "type": "function"
    },
    {
      "inputs": [
        {
          "internalType": "address",
          "name": "owner",
          "type": "address"
        },
        {
          "internalType": "address",
          "name": "operator",
          "type": "address"
        }
      ],
      "name": "isApprovedForAll",
      "outputs": [
        {
          "internalType": "bool",
          "name": "",
          "type": "bool"
        }
      ],
      "stateMutability": "view",
      "type": "function"
    },
    {
      "inputs": [
        {
          "internalType": "address",
          "name": "_to",
          "type": "address"
        }
      ],
      "name": "mint",
      "outputs": [],
      "stateMutability": "nonpayable",
      "type": "function"
    },
    {
      "inputs": [],
      "name": "name",
      "outputs": [
        {
          "internalType": "string",
          "name": "",
          "type": "string"
        }
      ],
      "stateMutability": "view",
      "type": "function"
    },
    {
      "inputs": [],
      "name": "owner",
      "outputs": [
        {
          "internalType": "address",
          "name": "",
          "type": "address"
        }
      ],
      "stateMutability": "view",
      "type": "function"
    },
    {
      "inputs": [
        {
          "internalType": "uint256",
          "name": "tokenId",
          "type": "uint256"
        }
      ],
      "name": "ownerOf",
      "outputs": [
        {
          "internalType": "address",
          "name": "",
          "type": "address"
        }
      ],
      "stateMutability": "view",
      "type": "function"
    },
    {
      "inputs": [],
      "name": "renounceOwnership",
      "outputs": [],
      "stateMutability": "nonpayable",
      "type": "function"
    },
    {
      "inputs": [
        {
          "internalType": "address",
          "name": "from",
          "type": "address"
        },
        {
          "internalType": "address",
          "name": "to",
          "type": "address"
        },
        {
          "internalType": "uint256",
          "name": "tokenId",
          "type": "uint256"
        }
      ],
      "name": "safeTransferFrom",
      "outputs": [],
      "stateMutability": "nonpayable",
      "type": "function"
    },
    {
      "inputs": [
        {
          "internalType": "address",
          "name": "from",
          "type": "address"
        },
        {
          "internalType": "address",
          "name": "to",
          "type": "address"
        },
        {
          "internalType": "uint256",
          "name": "tokenId",
          "type": "uint256"
        },
        {
          "internalType": "bytes",
          "name": "data",
          "type": "bytes"
        }
      ],
      "name": "safeTransferFrom",
      "outputs": [],
      "stateMutability": "nonpayable",
      "type": "function"
    },
    {
      "inputs": [
        {
          "internalType": "address",
          "name": "operator",
          "type": "address"
        },
        {
          "internalType": "bool",
          "name": "approved",
          "type": "bool"
        }
      ],
      "name": "setApprovalForAll",
      "outputs": [],
      "stateMutability": "nonpayable",
      "type": "function"
    },
    {
      "inputs": [],
      "name": "supply",
      "outputs": [
        {
          "internalType": "uint256",
          "name": "",
          "type": "uint256"
        }
      ],
      "stateMutability": "view",
      "type": "function"
    },
    {
      "inputs": [
        {
          "internalType": "bytes4",
          "name": "interfaceId",
          "type": "bytes4"
        }
      ],
      "name": "supportsInterface",
      "outputs": [
        {
          "internalType": "bool",
          "name": "",
          "type": "bool"
        }
      ],
      "stateMutability": "view",
      "type": "function"
    },
    {
      "inputs": [],
      "name": "svgCreator",
      "outputs": [
        {
          "internalType": "contract SVGCreator",
          "name": "",
          "type": "address"
        }
      ],
      "stateMutability": "view",
      "type": "function"
    },
    {
      "inputs": [],
      "name": "symbol",
      "outputs": [
        {
          "internalType": "string",
          "name": "",
          "type": "string"
        }
      ],
      "stateMutability": "view",
      "type": "function"
    },
    {
      "inputs": [
        {
          "internalType": "uint256",
          "name": "tokenId",
          "type": "uint256"
        }
      ],
      "name": "tokenURI",
      "outputs": [
        {
          "internalType": "string",
          "name": "",
          "type": "string"
        }
      ],
      "stateMutability": "view",
      "type": "function"
    },
    {
      "inputs": [
        {
          "internalType": "address",
          "name": "from",
          "type": "address"
        },
        {
          "internalType": "address",
          "name": "to",
          "type": "address"
        },
        {
          "internalType": "uint256",
          "name": "tokenId",
          "type": "uint256"
        }
      ],
      "name": "transferFrom",
      "outputs": [],
      "stateMutability": "nonpayable",
      "type": "function"
    },
    {
      "inputs": [
        {
          "internalType": "address",
          "name": "newOwner",
          "type": "address"
        }
      ],
      "name": "transferOwnership",
      "outputs": [],
      "stateMutability": "nonpayable",
      "type": "function"
    }
  ],
  "bytecode": "0x608060405260006007553480156200001657600080fd5b506040516200392d3803806200392d83398181016040528101906200003c91906200026e565b6040518060400160405280601381526020017f447269702052657075746174696f6e204e4654000000000000000000000000008152506040518060400160405280600781526020017f44524950524550000000000000000000000000000000000000000000000000008152508160009081620000b991906200051a565b508060019081620000cb91906200051a565b505050620000ee620000e26200013660201b60201c565b6200013e60201b60201c565b80600860006101000a81548173ffffffffffffffffffffffffffffffffffffffff021916908373ffffffffffffffffffffffffffffffffffffffff1602179055505062000601565b600033905090565b6000600660009054906101000a900473ffffffffffffffffffffffffffffffffffffffff16905081600660006101000a81548173ffffffffffffffffffffffffffffffffffffffff021916908373ffffffffffffffffffffffffffffffffffffffff1602179055508173ffffffffffffffffffffffffffffffffffffffff168173ffffffffffffffffffffffffffffffffffffffff167f8be0079c531659141344cd1fd0a4f28419497f9722a3daafe3b4186f6b6457e060405160405180910390a35050565b600080fd5b600073ffffffffffffffffffffffffffffffffffffffff82169050919050565b6000620002368262000209565b9050919050565b620002488162000229565b81146200025457600080fd5b50565b60008151905062000268816200023d565b92915050565b60006020828403121562000287576200028662000204565b5b6000620002978482850162000257565b91505092915050565b600081519050919050565b7f4e487b7100000000000000000000000000000000000000000000000000000000600052604160045260246000fd5b7f4e487b7100000000000000000000000000000000000000000000000000000000600052602260045260246000fd5b600060028204905060018216806200032257607f821691505b602082108103620003385762000337620002da565b5b50919050565b60008190508160005260206000209050919050565b60006020601f8301049050919050565b600082821b905092915050565b600060088302620003a27fffffffffffffffffffffffffffffffffffffffffffffffffffffffffffffffff8262000363565b620003ae868362000363565b95508019841693508086168417925050509392505050565b6000819050919050565b6000819050919050565b6000620003fb620003f5620003ef84620003c6565b620003d0565b620003c6565b9050919050565b6000819050919050565b6200041783620003da565b6200042f620004268262000402565b84845462000370565b825550505050565b600090565b6200044662000437565b620004538184846200040c565b505050565b5b818110156200047b576200046f6000826200043c565b60018101905062000459565b5050565b601f821115620004ca5762000494816200033e565b6200049f8462000353565b81016020851015620004af578190505b620004c7620004be8562000353565b83018262000458565b50505b505050565b600082821c905092915050565b6000620004ef60001984600802620004cf565b1980831691505092915050565b60006200050a8383620004dc565b9150826002028217905092915050565b6200052582620002a0565b67ffffffffffffffff811115620005415762000540620002ab565b5b6200054d825462000309565b6200055a8282856200047f565b600060209050601f8311600181146200059257600084156200057d578287015190505b620005898582620004fc565b865550620005f9565b601f198416620005a2866200033e565b60005b82811015620005cc57848901518255600182019150602085019450602081019050620005a5565b86831015620005ec5784890151620005e8601f891682620004dc565b8355505b6001600288020188555050505b505050505050565b61331c80620006116000396000f3fe608060405234801561001057600080fd5b506004361061012c5760003560e01c806370a08231116100ad578063b88d4fde11610071578063b88d4fde1461031d578063c87b56dd14610339578063e8a3d48514610369578063e985e9c514610387578063f2fde38b146103b75761012c565b806370a082311461028b578063715018a6146102bb5780638da5cb5b146102c557806395d89b41146102e3578063a22cb465146103015761012c565b806323b872dd116100f457806323b872dd146101e957806342842e0e146102055780635e39e1c9146102215780636352211e1461023f5780636a6278421461026f5761012c565b806301ffc9a714610131578063047fc9aa1461016157806306fdde031461017f578063081812fc1461019d578063095ea7b3146101cd575b600080fd5b61014b60048036038101906101469190611e57565b6103d3565b6040516101589190611e9f565b60405180910390f35b6101696104b5565b6040516101769190611ed3565b60405180910390f35b6101876104bb565b6040516101949190611f7e565b60405180910390f35b6101b760048036038101906101b29190611fcc565b61054d565b6040516101c4919061203a565b60405180910390f35b6101e760048036038101906101e29190612081565b610593565b005b61020360048036038101906101fe91906120c1565b6106aa565b005b61021f600480360381019061021a91906120c1565b61070a565b005b61022961072a565b6040516102369190612173565b60405180910390f35b61025960048036038101906102549190611fcc565b610750565b604051610266919061203a565b60405180910390f35b6102896004803603810190610284919061218e565b6107d6565b005b6102a560048036038101906102a0919061218e565b610923565b6040516102b29190611ed3565b60405180910390f35b6102c36109da565b005b6102cd6109ee565b6040516102da919061203a565b60405180910390f35b6102eb610a18565b6040516102f89190611f7e565b60405180910390f35b61031b600480360381019061031691906121e7565b610aaa565b005b6103376004803603810190610332919061235c565b610ac0565b005b610353600480360381019061034e9190611fcc565b610b22565b6040516103609190611f7e565b60405180910390f35b610371610c24565b60405161037e9190611f7e565b60405180910390f35b6103a1600480360381019061039c91906123df565b610c76565b6040516103ae9190611e9f565b60405180910390f35b6103d160048036038101906103cc919061218e565b610d0a565b005b60007f80ac58cd000000000000000000000000000000000000000000000000000000007bffffffffffffffffffffffffffffffffffffffffffffffffffffffff1916827bffffffffffffffffffffffffffffffffffffffffffffffffffffffff1916148061049e57507f5b5e139f000000000000000000000000000000000000000000000000000000007bffffffffffffffffffffffffffffffffffffffffffffffffffffffff1916827bffffffffffffffffffffffffffffffffffffffffffffffffffffffff1916145b806104ae57506104ad82610d8d565b5b9050919050565b60075481565b6060600080546104ca9061244e565b80601f01602080910402602001604051908101604052809291908181526020018280546104f69061244e565b80156105435780601f1061051857610100808354040283529160200191610543565b820191906000526020600020905b81548152906001019060200180831161052657829003601f168201915b5050505050905090565b600061055882610df7565b6004600083815260200190815260200160002060009054906101000a900473ffffffffffffffffffffffffffffffffffffffff169050919050565b600061059e82610750565b90508073ffffffffffffffffffffffffffffffffffffffff168373ffffffffffffffffffffffffffffffffffffffff160361060e576040517f08c379a0000000000000000000000000000000000000000000000000000000008152600401610605906124f1565b60405180910390fd5b8073ffffffffffffffffffffffffffffffffffffffff1661062d610e42565b73ffffffffffffffffffffffffffffffffffffffff16148061065c575061065b81610656610e42565b610c76565b5b61069b576040517f08c379a000000000000000000000000000000000000000000000000000000000815260040161069290612583565b60405180910390fd5b6106a58383610e4a565b505050565b6106bb6106b5610e42565b82610f03565b6106fa576040517f08c379a00000000000000000000000000000000000000000000000000000000081526004016106f190612615565b60405180910390fd5b610705838383610f98565b505050565b61072583838360405180602001604052806000815250610ac0565b505050565b600860009054906101000a900473ffffffffffffffffffffffffffffffffffffffff1681565b60008061075c83611291565b9050600073ffffffffffffffffffffffffffffffffffffffff168173ffffffffffffffffffffffffffffffffffffffff16036107cd576040517f08c379a00000000000000000000000000000000000000000000000000000000081526004016107c490612681565b60405180910390fd5b80915050919050565b6107de6112ce565b60016107e982610923565b10610829576040517f08c379a0000000000000000000000000000000000000000000000000000000008152600401610820906126ed565b60405180910390fd5b60016007600082825461083c919061273c565b9250508190555061084f8160075461134c565b6007543373ffffffffffffffffffffffffffffffffffffffff167fdf92894dc4675a7333caa5903b69cf5d8e8ec0d3f361c88207b6688e525703bb3073ffffffffffffffffffffffffffffffffffffffff1663c87b56dd6007546040518263ffffffff1660e01b81526004016108c59190611ed3565b600060405180830381865afa1580156108e2573d6000803e3d6000fd5b505050506040513d6000823e3d601f19601f8201168201806040525081019061090b9190612811565b6040516109189190611f7e565b60405180910390a350565b60008073ffffffffffffffffffffffffffffffffffffffff168273ffffffffffffffffffffffffffffffffffffffff1603610993576040517f08c379a000000000000000000000000000000000000000000000000000000000815260040161098a906128cc565b60405180910390fd5b600360008373ffffffffffffffffffffffffffffffffffffffff1673ffffffffffffffffffffffffffffffffffffffff168152602001908152602001600020549050919050565b6109e26112ce565b6109ec600061136a565b565b6000600660009054906101000a900473ffffffffffffffffffffffffffffffffffffffff16905090565b606060018054610a279061244e565b80601f0160208091040260200160405190810160405280929190818152602001828054610a539061244e565b8015610aa05780601f10610a7557610100808354040283529160200191610aa0565b820191906000526020600020905b815481529060010190602001808311610a8357829003601f168201915b5050505050905090565b610abc610ab5610e42565b8383611430565b5050565b610ad1610acb610e42565b83610f03565b610b10576040517f08c379a0000000000000000000000000000000000000000000000000000000008152600401610b0790612615565b60405180910390fd5b610b1c8484848461159c565b50505050565b60606000610bfa610b32846115f8565b600860009054906101000a900473ffffffffffffffffffffffffffffffffffffffff1673ffffffffffffffffffffffffffffffffffffffff1663130bcc396103e86040518263ffffffff1660e01b8152600401610b8f9190612927565b600060405180830381865afa158015610bac573d6000803e3d6000fd5b505050506040513d6000823e3d601f19601f82011682018060405250810190610bd59190612811565b604051602001610be6929190612b46565b6040516020818303038152906040526116c6565b905080604051602001610c0d9190612bf8565b604051602081830303815290604052915050919050565b60606000610c4e604051602001610c3a90612cfe565b6040516020818303038152906040526116c6565b905080604051602001610c619190612bf8565b60405160208183030381529060405291505090565b6000600560008473ffffffffffffffffffffffffffffffffffffffff1673ffffffffffffffffffffffffffffffffffffffff16815260200190815260200160002060008373ffffffffffffffffffffffffffffffffffffffff1673ffffffffffffffffffffffffffffffffffffffff16815260200190815260200160002060009054906101000a900460ff16905092915050565b610d126112ce565b600073ffffffffffffffffffffffffffffffffffffffff168173ffffffffffffffffffffffffffffffffffffffff1603610d81576040517f08c379a0000000000000000000000000000000000000000000000000000000008152600401610d7890612d9b565b60405180910390fd5b610d8a8161136a565b50565b60007f01ffc9a7000000000000000000000000000000000000000000000000000000007bffffffffffffffffffffffffffffffffffffffffffffffffffffffff1916827bffffffffffffffffffffffffffffffffffffffffffffffffffffffff1916149050919050565b610e0081611829565b610e3f576040517f08c379a0000000000000000000000000000000000000000000000000000000008152600401610e3690612681565b60405180910390fd5b50565b600033905090565b816004600083815260200190815260200160002060006101000a81548173ffffffffffffffffffffffffffffffffffffffff021916908373ffffffffffffffffffffffffffffffffffffffff160217905550808273ffffffffffffffffffffffffffffffffffffffff16610ebd83610750565b73ffffffffffffffffffffffffffffffffffffffff167f8c5be1e5ebec7d5bd14f71427d1e84f3dd0314c0f7b2291e5b200ac8c7c3b92560405160405180910390a45050565b600080610f0f83610750565b90508073ffffffffffffffffffffffffffffffffffffffff168473ffffffffffffffffffffffffffffffffffffffff161480610f515750610f508185610c76565b5b80610f8f57508373ffffffffffffffffffffffffffffffffffffffff16610f778461054d565b73ffffffffffffffffffffffffffffffffffffffff16145b91505092915050565b8273ffffffffffffffffffffffffffffffffffffffff16610fb882610750565b73ffffffffffffffffffffffffffffffffffffffff161461100e576040517f08c379a000000000000000000000000000000000000000000000000000000000815260040161100590612e2d565b60405180910390fd5b600073ffffffffffffffffffffffffffffffffffffffff168273ffffffffffffffffffffffffffffffffffffffff160361107d576040517f08c379a000000000000000000000000000000000000000000000000000000000815260040161107490612ebf565b60405180910390fd5b61108a838383600161186a565b8273ffffffffffffffffffffffffffffffffffffffff166110aa82610750565b73ffffffffffffffffffffffffffffffffffffffff1614611100576040517f08c379a00000000000000000000000000000000000000000000000000000000081526004016110f790612e2d565b60405180910390fd5b6004600082815260200190815260200160002060006101000a81549073ffffffffffffffffffffffffffffffffffffffff02191690556001600360008573ffffffffffffffffffffffffffffffffffffffff1673ffffffffffffffffffffffffffffffffffffffff168152602001908152602001600020600082825403925050819055506001600360008473ffffffffffffffffffffffffffffffffffffffff1673ffffffffffffffffffffffffffffffffffffffff16815260200190815260200160002060008282540192505081905550816002600083815260200190815260200160002060006101000a81548173ffffffffffffffffffffffffffffffffffffffff021916908373ffffffffffffffffffffffffffffffffffffffff160217905550808273ffffffffffffffffffffffffffffffffffffffff168473ffffffffffffffffffffffffffffffffffffffff167fddf252ad1be2c89b69c2b068fc378daa952ba7f163c4a11628f55a4df523b3ef60405160405180910390a461128c8383836001611870565b505050565b60006002600083815260200190815260200160002060009054906101000a900473ffffffffffffffffffffffffffffffffffffffff169050919050565b6112d6610e42565b73ffffffffffffffffffffffffffffffffffffffff166112f46109ee565b73ffffffffffffffffffffffffffffffffffffffff161461134a576040517f08c379a000000000000000000000000000000000000000000000000000000000815260040161134190612f2b565b60405180910390fd5b565b611366828260405180602001604052806000815250611876565b5050565b6000600660009054906101000a900473ffffffffffffffffffffffffffffffffffffffff16905081600660006101000a81548173ffffffffffffffffffffffffffffffffffffffff021916908373ffffffffffffffffffffffffffffffffffffffff1602179055508173ffffffffffffffffffffffffffffffffffffffff168173ffffffffffffffffffffffffffffffffffffffff167f8be0079c531659141344cd1fd0a4f28419497f9722a3daafe3b4186f6b6457e060405160405180910390a35050565b8173ffffffffffffffffffffffffffffffffffffffff168373ffffffffffffffffffffffffffffffffffffffff160361149e576040517f08c379a000000000000000000000000000000000000000000000000000000000815260040161149590612f97565b60405180910390fd5b80600560008573ffffffffffffffffffffffffffffffffffffffff1673ffffffffffffffffffffffffffffffffffffffff16815260200190815260200160002060008473ffffffffffffffffffffffffffffffffffffffff1673ffffffffffffffffffffffffffffffffffffffff16815260200190815260200160002060006101000a81548160ff0219169083151502179055508173ffffffffffffffffffffffffffffffffffffffff168373ffffffffffffffffffffffffffffffffffffffff167f17307eab39ab6107e8899845ad3d59bd9653f200f220920489ca2b5937696c318360405161158f9190611e9f565b60405180910390a3505050565b6115a7848484610f98565b6115b3848484846118d1565b6115f2576040517f08c379a00000000000000000000000000000000000000000000000000000000081526004016115e990613029565b60405180910390fd5b50505050565b60606000600161160784611a58565b01905060008167ffffffffffffffff81111561162657611625612231565b5b6040519080825280601f01601f1916602001820160405280156116585781602001600182028036833780820191505090505b509050600082602001820190505b6001156116bb578080600190039150507f3031323334353637383961626364656600000000000000000000000000000000600a86061a8153600a85816116af576116ae613049565b5b04945060008503611666575b819350505050919050565b606060008251036116e857604051806020016040528060008152509050611824565b60006040518060600160405280604081526020016132a76040913990506000600360028551611717919061273c565b6117219190613078565b600461172d91906130a9565b67ffffffffffffffff81111561174657611745612231565b5b6040519080825280601f01601f1916602001820160405280156117785781602001600182028036833780820191505090505b509050600182016020820185865187015b808210156117e4576003820191508151603f8160121c168501518453600184019350603f81600c1c168501518453600184019350603f8160061c168501518453600184019350603f8116850151845360018401935050611789565b505060038651066001811461180057600281146118135761181b565b603d6001830353603d600283035361181b565b603d60018303535b50505080925050505b919050565b60008073ffffffffffffffffffffffffffffffffffffffff1661184b83611291565b73ffffffffffffffffffffffffffffffffffffffff1614159050919050565b50505050565b50505050565b6118808383611bab565b61188d60008484846118d1565b6118cc576040517f08c379a00000000000000000000000000000000000000000000000000000000081526004016118c390613029565b60405180910390fd5b505050565b60006118f28473ffffffffffffffffffffffffffffffffffffffff16611dc8565b15611a4b578373ffffffffffffffffffffffffffffffffffffffff1663150b7a0261191b610e42565b8786866040518563ffffffff1660e01b815260040161193d9493929190613140565b6020604051808303816000875af192505050801561197957506040513d601f19601f8201168201806040525081019061197691906131a1565b60015b6119fb573d80600081146119a9576040519150601f19603f3d011682016040523d82523d6000602084013e6119ae565b606091505b5060008151036119f3576040517f08c379a00000000000000000000000000000000000000000000000000000000081526004016119ea90613029565b60405180910390fd5b805181602001fd5b63150b7a0260e01b7bffffffffffffffffffffffffffffffffffffffffffffffffffffffff1916817bffffffffffffffffffffffffffffffffffffffffffffffffffffffff191614915050611a50565b600190505b949350505050565b600080600090507a184f03e93ff9f4daa797ed6e38ed64bf6a1f0100000000000000008310611ab6577a184f03e93ff9f4daa797ed6e38ed64bf6a1f0100000000000000008381611aac57611aab613049565b5b0492506040810190505b6d04ee2d6d415b85acef81000000008310611af3576d04ee2d6d415b85acef81000000008381611ae957611ae8613049565b5b0492506020810190505b662386f26fc100008310611b2257662386f26fc100008381611b1857611b17613049565b5b0492506010810190505b6305f5e1008310611b4b576305f5e1008381611b4157611b40613049565b5b0492506008810190505b6127108310611b70576127108381611b6657611b65613049565b5b0492506004810190505b60648310611b935760648381611b8957611b88613049565b5b0492506002810190505b600a8310611ba2576001810190505b80915050919050565b600073ffffffffffffffffffffffffffffffffffffffff168273ffffffffffffffffffffffffffffffffffffffff1603611c1a576040517f08c379a0000000000000000000000000000000000000000000000000000000008152600401611c119061321a565b60405180910390fd5b611c2381611829565b15611c63576040517f08c379a0000000000000000000000000000000000000000000000000000000008152600401611c5a90613286565b60405180910390fd5b611c7160008383600161186a565b611c7a81611829565b15611cba576040517f08c379a0000000000000000000000000000000000000000000000000000000008152600401611cb190613286565b60405180910390fd5b6001600360008473ffffffffffffffffffffffffffffffffffffffff1673ffffffffffffffffffffffffffffffffffffffff16815260200190815260200160002060008282540192505081905550816002600083815260200190815260200160002060006101000a81548173ffffffffffffffffffffffffffffffffffffffff021916908373ffffffffffffffffffffffffffffffffffffffff160217905550808273ffffffffffffffffffffffffffffffffffffffff16600073ffffffffffffffffffffffffffffffffffffffff167fddf252ad1be2c89b69c2b068fc378daa952ba7f163c4a11628f55a4df523b3ef60405160405180910390a4611dc4600083836001611870565b5050565b6000808273ffffffffffffffffffffffffffffffffffffffff163b119050919050565b6000604051905090565b600080fd5b600080fd5b60007fffffffff0000000000000000000000000000000000000000000000000000000082169050919050565b611e3481611dff565b8114611e3f57600080fd5b50565b600081359050611e5181611e2b565b92915050565b600060208284031215611e6d57611e6c611df5565b5b6000611e7b84828501611e42565b91505092915050565b60008115159050919050565b611e9981611e84565b82525050565b6000602082019050611eb46000830184611e90565b92915050565b6000819050919050565b611ecd81611eba565b82525050565b6000602082019050611ee86000830184611ec4565b92915050565b600081519050919050565b600082825260208201905092915050565b60005b83811015611f28578082015181840152602081019050611f0d565b60008484015250505050565b6000601f19601f8301169050919050565b6000611f5082611eee565b611f5a8185611ef9565b9350611f6a818560208601611f0a565b611f7381611f34565b840191505092915050565b60006020820190508181036000830152611f988184611f45565b905092915050565b611fa981611eba565b8114611fb457600080fd5b50565b600081359050611fc681611fa0565b92915050565b600060208284031215611fe257611fe1611df5565b5b6000611ff084828501611fb7565b91505092915050565b600073ffffffffffffffffffffffffffffffffffffffff82169050919050565b600061202482611ff9565b9050919050565b61203481612019565b82525050565b600060208201905061204f600083018461202b565b92915050565b61205e81612019565b811461206957600080fd5b50565b60008135905061207b81612055565b92915050565b6000806040838503121561209857612097611df5565b5b60006120a68582860161206c565b92505060206120b785828601611fb7565b9150509250929050565b6000806000606084860312156120da576120d9611df5565b5b60006120e88682870161206c565b93505060206120f98682870161206c565b925050604061210a86828701611fb7565b9150509250925092565b6000819050919050565b600061213961213461212f84611ff9565b612114565b611ff9565b9050919050565b600061214b8261211e565b9050919050565b600061215d82612140565b9050919050565b61216d81612152565b82525050565b60006020820190506121886000830184612164565b92915050565b6000602082840312156121a4576121a3611df5565b5b60006121b28482850161206c565b91505092915050565b6121c481611e84565b81146121cf57600080fd5b50565b6000813590506121e1816121bb565b92915050565b600080604083850312156121fe576121fd611df5565b5b600061220c8582860161206c565b925050602061221d858286016121d2565b9150509250929050565b600080fd5b600080fd5b7f4e487b7100000000000000000000000000000000000000000000000000000000600052604160045260246000fd5b61226982611f34565b810181811067ffffffffffffffff8211171561228857612287612231565b5b80604052505050565b600061229b611deb565b90506122a78282612260565b919050565b600067ffffffffffffffff8211156122c7576122c6612231565b5b6122d082611f34565b9050602081019050919050565b82818337600083830152505050565b60006122ff6122fa846122ac565b612291565b90508281526020810184848401111561231b5761231a61222c565b5b6123268482856122dd565b509392505050565b600082601f83011261234357612342612227565b5b81356123538482602086016122ec565b91505092915050565b6000806000806080858703121561237657612375611df5565b5b60006123848782880161206c565b94505060206123958782880161206c565b93505060406123a687828801611fb7565b925050606085013567ffffffffffffffff8111156123c7576123c6611dfa565b5b6123d38782880161232e565b91505092959194509250565b600080604083850312156123f6576123f5611df5565b5b60006124048582860161206c565b92505060206124158582860161206c565b9150509250929050565b7f4e487b7100000000000000000000000000000000000000000000000000000000600052602260045260246000fd5b6000600282049050600182168061246657607f821691505b6020821081036124795761247861241f565b5b50919050565b7f4552433732313a20617070726f76616c20746f2063757272656e74206f776e6560008201527f7200000000000000000000000000000000000000000000000000000000000000602082015250565b60006124db602183611ef9565b91506124e68261247f565b604082019050919050565b6000602082019050818103600083015261250a816124ce565b9050919050565b7f4552433732313a20617070726f76652063616c6c6572206973206e6f7420746f60008201527f6b656e206f776e6572206f7220617070726f76656420666f7220616c6c000000602082015250565b600061256d603d83611ef9565b915061257882612511565b604082019050919050565b6000602082019050818103600083015261259c81612560565b9050919050565b7f4552433732313a2063616c6c6572206973206e6f7420746f6b656e206f776e6560008201527f72206f7220617070726f76656400000000000000000000000000000000000000602082015250565b60006125ff602d83611ef9565b915061260a826125a3565b604082019050919050565b6000602082019050818103600083015261262e816125f2565b9050919050565b7f4552433732313a20696e76616c696420746f6b656e2049440000000000000000600082015250565b600061266b601883611ef9565b915061267682612635565b602082019050919050565b6000602082019050818103600083015261269a8161265e565b9050919050565b7f4d696e74696e67206c696d697420666f72207573657220657863656564656400600082015250565b60006126d7601f83611ef9565b91506126e2826126a1565b602082019050919050565b60006020820190508181036000830152612706816126ca565b9050919050565b7f4e487b7100000000000000000000000000000000000000000000000000000000600052601160045260246000fd5b600061274782611eba565b915061275283611eba565b925082820190508082111561276a5761276961270d565b5b92915050565b600067ffffffffffffffff82111561278b5761278a612231565b5b61279482611f34565b9050602081019050919050565b60006127b46127af84612770565b612291565b9050828152602081018484840111156127d0576127cf61222c565b5b6127db848285611f0a565b509392505050565b600082601f8301126127f8576127f7612227565b5b81516128088482602086016127a1565b91505092915050565b60006020828403121561282757612826611df5565b5b600082015167ffffffffffffffff81111561284557612844611dfa565b5b612851848285016127e3565b91505092915050565b7f4552433732313a2061646472657373207a65726f206973206e6f74206120766160008201527f6c6964206f776e65720000000000000000000000000000000000000000000000602082015250565b60006128b6602983611ef9565b91506128c18261285a565b604082019050919050565b600060208201905081810360008301526128e5816128a9565b9050919050565b6000819050919050565b600061291161290c612907846128ec565b612114565b611eba565b9050919050565b612921816128f6565b82525050565b600060208201905061293c6000830184612918565b92915050565b600081905092915050565b7f7b226e616d65223a2022447269702052657075746174696f6e204e4654202300600082015250565b6000612983601f83612942565b915061298e8261294d565b601f82019050919050565b60006129a482611eee565b6129ae8185612942565b93506129be818560208601611f0a565b80840191505092915050565b7f222c000000000000000000000000000000000000000000000000000000000000600082015250565b6000612a00600283612942565b9150612a0b826129ca565b600282019050919050565b7f22696d6167655f64617461223a20220000000000000000000000000000000000600082015250565b6000612a4c600f83612942565b9150612a5782612a16565b600f82019050919050565b7f226465736372697074696f6e223a202254686973204e4654206964206d6f6d2060008201527f7472616e7366657261626c6520616e642073657276657273206173207265707560208201527f746174696f6e20666f7220445249502072657669657720706c6174666f726d22604082015250565b6000612ae4606083612942565b9150612aef82612a62565b606082019050919050565b7f7d00000000000000000000000000000000000000000000000000000000000000600082015250565b6000612b30600183612942565b9150612b3b82612afa565b600182019050919050565b6000612b5182612976565b9150612b5d8285612999565b9150612b68826129f3565b9150612b7382612a3f565b9150612b7f8284612999565b9150612b8a826129f3565b9150612b9582612ad7565b9150612ba082612b23565b91508190509392505050565b7f646174613a6170706c69636174696f6e2f6a736f6e3b6261736536342c000000600082015250565b6000612be2601d83612942565b9150612bed82612bac565b601d82019050919050565b6000612c0382612bd5565b9150612c0f8284612999565b915081905092915050565b7f7b226e616d65223a2022447269702052657075746174696f6e204e465420436f60008201527f6c6c656374696f6e222c00000000000000000000000000000000000000000000602082015250565b6000612c76602a83612942565b9150612c8182612c1a565b602a82019050919050565b7f226465736372697074696f6e223a202244524950206974206c696b652069742760008201527f7320686f74220000000000000000000000000000000000000000000000000000602082015250565b6000612ce8602683612942565b9150612cf382612c8c565b602682019050919050565b6000612d0982612c69565b9150612d1482612cdb565b9150612d1f82612b23565b9150819050919050565b7f4f776e61626c653a206e6577206f776e657220697320746865207a65726f206160008201527f6464726573730000000000000000000000000000000000000000000000000000602082015250565b6000612d85602683611ef9565b9150612d9082612d29565b604082019050919050565b60006020820190508181036000830152612db481612d78565b9050919050565b7f4552433732313a207472616e736665722066726f6d20696e636f72726563742060008201527f6f776e6572000000000000000000000000000000000000000000000000000000602082015250565b6000612e17602583611ef9565b9150612e2282612dbb565b604082019050919050565b60006020820190508181036000830152612e4681612e0a565b9050919050565b7f4552433732313a207472616e7366657220746f20746865207a65726f2061646460008201527f7265737300000000000000000000000000000000000000000000000000000000602082015250565b6000612ea9602483611ef9565b9150612eb482612e4d565b604082019050919050565b60006020820190508181036000830152612ed881612e9c565b9050919050565b7f4f776e61626c653a2063616c6c6572206973206e6f7420746865206f776e6572600082015250565b6000612f15602083611ef9565b9150612f2082612edf565b602082019050919050565b60006020820190508181036000830152612f4481612f08565b9050919050565b7f4552433732313a20617070726f766520746f2063616c6c657200000000000000600082015250565b6000612f81601983611ef9565b9150612f8c82612f4b565b602082019050919050565b60006020820190508181036000830152612fb081612f74565b9050919050565b7f4552433732313a207472616e7366657220746f206e6f6e20455243373231526560008201527f63656976657220696d706c656d656e7465720000000000000000000000000000602082015250565b6000613013603283611ef9565b915061301e82612fb7565b604082019050919050565b6000602082019050818103600083015261304281613006565b9050919050565b7f4e487b7100000000000000000000000000000000000000000000000000000000600052601260045260246000fd5b600061308382611eba565b915061308e83611eba565b92508261309e5761309d613049565b5b828204905092915050565b60006130b482611eba565b91506130bf83611eba565b92508282026130cd81611eba565b915082820484148315176130e4576130e361270d565b5b5092915050565b600081519050919050565b600082825260208201905092915050565b6000613112826130eb565b61311c81856130f6565b935061312c818560208601611f0a565b61313581611f34565b840191505092915050565b6000608082019050613155600083018761202b565b613162602083018661202b565b61316f6040830185611ec4565b81810360608301526131818184613107565b905095945050505050565b60008151905061319b81611e2b565b92915050565b6000602082840312156131b7576131b6611df5565b5b60006131c58482850161318c565b91505092915050565b7f4552433732313a206d696e7420746f20746865207a65726f2061646472657373600082015250565b6000613204602083611ef9565b915061320f826131ce565b602082019050919050565b60006020820190508181036000830152613233816131f7565b9050919050565b7f4552433732313a20746f6b656e20616c7265616479206d696e74656400000000600082015250565b6000613270601c83611ef9565b915061327b8261323a565b602082019050919050565b6000602082019050818103600083015261329f81613263565b905091905056fe4142434445464748494a4b4c4d4e4f505152535455565758595a6162636465666768696a6b6c6d6e6f707172737475767778797a303132333435363738392b2fa26469706673582212203f42ec93db67dbffeac02bdcaf7255844d2e3a6ec5e404e2e7e977100371c07364736f6c63430008120033",
  "linkReferences": {},
  "deployedLinkReferences": {}
}